{
	"contracts/HotelRoom.sol": {
		"HotelRoom": {
			"abi": [
				{
					"inputs": [],
					"stateMutability": "nonpayable",
					"type": "constructor"
				},
				{
					"anonymous": false,
					"inputs": [
						{
							"indexed": false,
							"internalType": "address",
							"name": "_occupant",
							"type": "address"
						},
						{
							"indexed": false,
							"internalType": "uint256",
							"name": "_value",
							"type": "uint256"
						}
					],
					"name": "Occupy",
					"type": "event"
				},
				{
					"inputs": [],
					"name": "book",
					"outputs": [],
					"stateMutability": "payable",
					"type": "function"
				},
				{
					"inputs": [],
					"name": "currentstatus",
					"outputs": [
						{
							"internalType": "enum HotelRoom.status",
							"name": "",
							"type": "uint8"
						}
					],
					"stateMutability": "view",
					"type": "function"
				}
			],
			"devdoc": {
				"kind": "dev",
				"methods": {},
				"version": 1
			},
			"evm": {
				"assembly": "    /* \"contracts/HotelRoom.sol\":60:1224  contract HotelRoom {... */\n  mstore(0x40, 0x80)\n    /* \"contracts/HotelRoom.sol\":559:774  constructor (){ // constructor is spl func that runs only once when ever the contract is put on to the blockchain ... */\n  callvalue\n  dup1\n  iszero\n  tag_1\n  jumpi\n  0x00\n  dup1\n  revert\ntag_1:\n  pop\n    /* \"contracts/HotelRoom.sol\":697:707  msg.sender */\n  caller\n    /* \"contracts/HotelRoom.sol\":683:688  owner */\n  0x00\n  0x01\n    /* \"contracts/HotelRoom.sol\":683:708  owner=payable(msg.sender) */\n  0x0100\n  exp\n  dup2\n  sload\n  dup2\n  0xffffffffffffffffffffffffffffffffffffffff\n  mul\n  not\n  and\n  swap1\n  dup4\n  0xffffffffffffffffffffffffffffffffffffffff\n  and\n  mul\n  or\n  swap1\n  sstore\n  pop\n    /* \"contracts/HotelRoom.sol\":734:747  status.vacant */\n  0x00\n    /* \"contracts/HotelRoom.sol\":720:733  currentstatus */\n  dup1\n  0x00\n    /* \"contracts/HotelRoom.sol\":720:747  currentstatus=status.vacant */\n  0x0100\n  exp\n  dup2\n  sload\n  dup2\n  0xff\n  mul\n  not\n  and\n  swap1\n  dup4\n  0x01\n  dup2\n  gt\n  iszero\n  tag_4\n  jumpi\n  tag_5\n  tag_6\n  jump\t// in\ntag_5:\ntag_4:\n  mul\n  or\n  swap1\n  sstore\n  pop\n    /* \"contracts/HotelRoom.sol\":60:1224  contract HotelRoom {... */\n  jump(tag_7)\n    /* \"#utility.yul\":7:187   */\ntag_6:\n    /* \"#utility.yul\":55:132   */\n  0x4e487b7100000000000000000000000000000000000000000000000000000000\n    /* \"#utility.yul\":52:53   */\n  0x00\n    /* \"#utility.yul\":45:133   */\n  mstore\n    /* \"#utility.yul\":152:156   */\n  0x21\n    /* \"#utility.yul\":149:150   */\n  0x04\n    /* \"#utility.yul\":142:157   */\n  mstore\n    /* \"#utility.yul\":176:180   */\n  0x24\n    /* \"#utility.yul\":173:174   */\n  0x00\n    /* \"#utility.yul\":166:181   */\n  revert\n    /* \"contracts/HotelRoom.sol\":60:1224  contract HotelRoom {... */\ntag_7:\n  dataSize(sub_0)\n  dup1\n  dataOffset(sub_0)\n  0x00\n  codecopy\n  0x00\n  return\nstop\n\nsub_0: assembly {\n        /* \"contracts/HotelRoom.sol\":60:1224  contract HotelRoom {... */\n      mstore(0x40, 0x80)\n      jumpi(tag_1, lt(calldatasize, 0x04))\n      shr(0xe0, calldataload(0x00))\n      dup1\n      0x05a8da72\n      eq\n      tag_2\n      jumpi\n      dup1\n      0x9e14e2b9\n      eq\n      tag_3\n      jumpi\n    tag_1:\n      0x00\n      dup1\n      revert\n        /* \"contracts/HotelRoom.sol\":904:1222  function book() public payable costs(2 ether){... */\n    tag_2:\n      tag_4\n      tag_5\n      jump\t// in\n    tag_4:\n      stop\n        /* \"contracts/HotelRoom.sol\":180:207  status public currentstatus */\n    tag_3:\n      callvalue\n      dup1\n      iszero\n      tag_6\n      jumpi\n      0x00\n      dup1\n      revert\n    tag_6:\n      pop\n      tag_7\n      tag_8\n      jump\t// in\n    tag_7:\n      mload(0x40)\n      tag_9\n      swap2\n      swap1\n      tag_10\n      jump\t// in\n    tag_9:\n      mload(0x40)\n      dup1\n      swap2\n      sub\n      swap1\n      return\n        /* \"contracts/HotelRoom.sol\":904:1222  function book() public payable costs(2 ether){... */\n    tag_5:\n        /* \"contracts/HotelRoom.sol\":941:948  2 ether */\n      0x1bc16d674ec80000\n        /* \"contracts/HotelRoom.sol\":840:847  _amount */\n      dup1\n        /* \"contracts/HotelRoom.sol\":828:837  msg.value */\n      callvalue\n        /* \"contracts/HotelRoom.sol\":828:847  msg.value >=_amount */\n      lt\n      iszero\n        /* \"contracts/HotelRoom.sol\":820:877  require(msg.value >=_amount, \"not enough ether provided\") */\n      tag_12\n      jumpi\n      mload(0x40)\n      0x08c379a000000000000000000000000000000000000000000000000000000000\n      dup2\n      mstore\n      0x04\n      add\n      tag_13\n      swap1\n      tag_14\n      jump\t// in\n    tag_13:\n      mload(0x40)\n      dup1\n      swap2\n      sub\n      swap1\n      revert\n    tag_12:\n        /* \"contracts/HotelRoom.sol\":982:995  status.vacant */\n      0x00\n        /* \"contracts/HotelRoom.sol\":967:995  currentstatus==status.vacant */\n      0x01\n      dup2\n      gt\n      iszero\n      tag_16\n      jumpi\n      tag_17\n      tag_18\n      jump\t// in\n    tag_17:\n    tag_16:\n        /* \"contracts/HotelRoom.sol\":967:980  currentstatus */\n      0x00\n      dup1\n      sload\n      swap1\n      0x0100\n      exp\n      swap1\n      div\n      0xff\n      and\n        /* \"contracts/HotelRoom.sol\":967:995  currentstatus==status.vacant */\n      0x01\n      dup2\n      gt\n      iszero\n      tag_19\n      jumpi\n      tag_20\n      tag_18\n      jump\t// in\n    tag_20:\n    tag_19:\n      eq\n        /* \"contracts/HotelRoom.sol\":959:1021  require(currentstatus==status.vacant, \" the room is occupied\") */\n      tag_21\n      jumpi\n      mload(0x40)\n      0x08c379a000000000000000000000000000000000000000000000000000000000\n      dup2\n      mstore\n      0x04\n      add\n      tag_22\n      swap1\n      tag_23\n      jump\t// in\n    tag_22:\n      mload(0x40)\n      dup1\n      swap2\n      sub\n      swap1\n      revert\n    tag_21:\n        /* \"contracts/HotelRoom.sol\":1045:1060  status.occupied */\n      0x01\n        /* \"contracts/HotelRoom.sol\":1031:1044  currentstatus */\n      0x00\n      dup1\n        /* \"contracts/HotelRoom.sol\":1031:1060  currentstatus=status.occupied */\n      0x0100\n      exp\n      dup2\n      sload\n      dup2\n      0xff\n      mul\n      not\n      and\n      swap1\n      dup4\n      0x01\n      dup2\n      gt\n      iszero\n      tag_24\n      jumpi\n      tag_25\n      tag_18\n      jump\t// in\n    tag_25:\n    tag_24:\n      mul\n      or\n      swap1\n      sstore\n      pop\n        /* \"contracts/HotelRoom.sol\":1071:1080  bool sent */\n      0x00\n        /* \"contracts/HotelRoom.sol\":1081:1098  bytes memory data */\n      dup1\n        /* \"contracts/HotelRoom.sol\":1102:1107  owner */\n      0x00\n      0x01\n      swap1\n      sload\n      swap1\n      0x0100\n      exp\n      swap1\n      div\n      0xffffffffffffffffffffffffffffffffffffffff\n      and\n        /* \"contracts/HotelRoom.sol\":1102:1112  owner.call */\n      0xffffffffffffffffffffffffffffffffffffffff\n      and\n        /* \"contracts/HotelRoom.sol\":1120:1129  msg.value */\n      callvalue\n        /* \"contracts/HotelRoom.sol\":1102:1134  owner.call{value: msg.value}(\"\") */\n      mload(0x40)\n      tag_26\n      swap1\n      tag_27\n      jump\t// in\n    tag_26:\n      0x00\n      mload(0x40)\n      dup1\n      dup4\n      sub\n      dup2\n      dup6\n      dup8\n      gas\n      call\n      swap3\n      pop\n      pop\n      pop\n      returndatasize\n      dup1\n      0x00\n      dup2\n      eq\n      tag_30\n      jumpi\n      mload(0x40)\n      swap2\n      pop\n      and(add(returndatasize, 0x3f), not(0x1f))\n      dup3\n      add\n      0x40\n      mstore\n      returndatasize\n      dup3\n      mstore\n      returndatasize\n      0x00\n      0x20\n      dup5\n      add\n      returndatacopy\n      jump(tag_29)\n    tag_30:\n      0x60\n      swap2\n      pop\n    tag_29:\n      pop\n        /* \"contracts/HotelRoom.sol\":1070:1134  (bool sent,bytes memory data) = owner.call{value: msg.value}(\"\") */\n      swap2\n      pop\n      swap2\n      pop\n        /* \"contracts/HotelRoom.sol\":1152:1156  sent */\n      dup2\n        /* \"contracts/HotelRoom.sol\":1144:1157  require(sent) */\n      tag_31\n      jumpi\n      0x00\n      dup1\n      revert\n    tag_31:\n        /* \"contracts/HotelRoom.sol\":1174:1202  Occupy(msg.sender,msg.value) */\n      0xba951166d42eb077151bdecb7cf6027562f04f0143b0c141b1bb0a33eef5d693\n        /* \"contracts/HotelRoom.sol\":1181:1191  msg.sender */\n      caller\n        /* \"contracts/HotelRoom.sol\":1192:1201  msg.value */\n      callvalue\n        /* \"contracts/HotelRoom.sol\":1174:1202  Occupy(msg.sender,msg.value) */\n      mload(0x40)\n      tag_32\n      swap3\n      swap2\n      swap1\n      tag_33\n      jump\t// in\n    tag_32:\n      mload(0x40)\n      dup1\n      swap2\n      sub\n      swap1\n      log1\n        /* \"contracts/HotelRoom.sol\":949:1222  {... */\n      pop\n      pop\n        /* \"contracts/HotelRoom.sol\":904:1222  function book() public payable costs(2 ether){... */\n      pop\n      jump\t// out\n        /* \"contracts/HotelRoom.sol\":180:207  status public currentstatus */\n    tag_8:\n      0x00\n      dup1\n      sload\n      swap1\n      0x0100\n      exp\n      swap1\n      div\n      0xff\n      and\n      dup2\n      jump\t// out\n        /* \"#utility.yul\":7:125   */\n    tag_35:\n        /* \"#utility.yul\":94:118   */\n      tag_37\n        /* \"#utility.yul\":112:117   */\n      dup2\n        /* \"#utility.yul\":94:118   */\n      tag_38\n      jump\t// in\n    tag_37:\n        /* \"#utility.yul\":89:92   */\n      dup3\n        /* \"#utility.yul\":82:119   */\n      mstore\n        /* \"#utility.yul\":7:125   */\n      pop\n      pop\n      jump\t// out\n        /* \"#utility.yul\":131:274   */\n    tag_39:\n        /* \"#utility.yul\":224:267   */\n      tag_41\n        /* \"#utility.yul\":261:266   */\n      dup2\n        /* \"#utility.yul\":224:267   */\n      tag_42\n      jump\t// in\n    tag_41:\n        /* \"#utility.yul\":219:222   */\n      dup3\n        /* \"#utility.yul\":212:268   */\n      mstore\n        /* \"#utility.yul\":131:274   */\n      pop\n      pop\n      jump\t// out\n        /* \"#utility.yul\":280:646   */\n    tag_43:\n        /* \"#utility.yul\":422:425   */\n      0x00\n        /* \"#utility.yul\":443:510   */\n      tag_45\n        /* \"#utility.yul\":507:509   */\n      0x19\n        /* \"#utility.yul\":502:505   */\n      dup4\n        /* \"#utility.yul\":443:510   */\n      tag_46\n      jump\t// in\n    tag_45:\n        /* \"#utility.yul\":436:510   */\n      swap2\n      pop\n        /* \"#utility.yul\":519:612   */\n      tag_47\n        /* \"#utility.yul\":608:611   */\n      dup3\n        /* \"#utility.yul\":519:612   */\n      tag_48\n      jump\t// in\n    tag_47:\n        /* \"#utility.yul\":637:639   */\n      0x20\n        /* \"#utility.yul\":632:635   */\n      dup3\n        /* \"#utility.yul\":628:640   */\n      add\n        /* \"#utility.yul\":621:640   */\n      swap1\n      pop\n        /* \"#utility.yul\":280:646   */\n      swap2\n      swap1\n      pop\n      jump\t// out\n        /* \"#utility.yul\":652:1018   */\n    tag_49:\n        /* \"#utility.yul\":794:797   */\n      0x00\n        /* \"#utility.yul\":815:882   */\n      tag_51\n        /* \"#utility.yul\":879:881   */\n      0x15\n        /* \"#utility.yul\":874:877   */\n      dup4\n        /* \"#utility.yul\":815:882   */\n      tag_46\n      jump\t// in\n    tag_51:\n        /* \"#utility.yul\":808:882   */\n      swap2\n      pop\n        /* \"#utility.yul\":891:984   */\n      tag_52\n        /* \"#utility.yul\":980:983   */\n      dup3\n        /* \"#utility.yul\":891:984   */\n      tag_53\n      jump\t// in\n    tag_52:\n        /* \"#utility.yul\":1009:1011   */\n      0x20\n        /* \"#utility.yul\":1004:1007   */\n      dup3\n        /* \"#utility.yul\":1000:1012   */\n      add\n        /* \"#utility.yul\":993:1012   */\n      swap1\n      pop\n        /* \"#utility.yul\":652:1018   */\n      swap2\n      swap1\n      pop\n      jump\t// out\n        /* \"#utility.yul\":1024:1422   */\n    tag_54:\n        /* \"#utility.yul\":1183:1186   */\n      0x00\n        /* \"#utility.yul\":1204:1287   */\n      tag_56\n        /* \"#utility.yul\":1285:1286   */\n      0x00\n        /* \"#utility.yul\":1280:1283   */\n      dup4\n        /* \"#utility.yul\":1204:1287   */\n      tag_57\n      jump\t// in\n    tag_56:\n        /* \"#utility.yul\":1197:1287   */\n      swap2\n      pop\n        /* \"#utility.yul\":1296:1389   */\n      tag_58\n        /* \"#utility.yul\":1385:1388   */\n      dup3\n        /* \"#utility.yul\":1296:1389   */\n      tag_59\n      jump\t// in\n    tag_58:\n        /* \"#utility.yul\":1414:1415   */\n      0x00\n        /* \"#utility.yul\":1409:1412   */\n      dup3\n        /* \"#utility.yul\":1405:1416   */\n      add\n        /* \"#utility.yul\":1398:1416   */\n      swap1\n      pop\n        /* \"#utility.yul\":1024:1422   */\n      swap2\n      swap1\n      pop\n      jump\t// out\n        /* \"#utility.yul\":1428:1546   */\n    tag_60:\n        /* \"#utility.yul\":1515:1539   */\n      tag_62\n        /* \"#utility.yul\":1533:1538   */\n      dup2\n        /* \"#utility.yul\":1515:1539   */\n      tag_63\n      jump\t// in\n    tag_62:\n        /* \"#utility.yul\":1510:1513   */\n      dup3\n        /* \"#utility.yul\":1503:1540   */\n      mstore\n        /* \"#utility.yul\":1428:1546   */\n      pop\n      pop\n      jump\t// out\n        /* \"#utility.yul\":1552:1931   */\n    tag_27:\n        /* \"#utility.yul\":1736:1739   */\n      0x00\n        /* \"#utility.yul\":1758:1905   */\n      tag_65\n        /* \"#utility.yul\":1901:1904   */\n      dup3\n        /* \"#utility.yul\":1758:1905   */\n      tag_54\n      jump\t// in\n    tag_65:\n        /* \"#utility.yul\":1751:1905   */\n      swap2\n      pop\n        /* \"#utility.yul\":1922:1925   */\n      dup2\n        /* \"#utility.yul\":1915:1925   */\n      swap1\n      pop\n        /* \"#utility.yul\":1552:1931   */\n      swap2\n      swap1\n      pop\n      jump\t// out\n        /* \"#utility.yul\":1937:2269   */\n    tag_33:\n        /* \"#utility.yul\":2058:2062   */\n      0x00\n        /* \"#utility.yul\":2096:2098   */\n      0x40\n        /* \"#utility.yul\":2085:2094   */\n      dup3\n        /* \"#utility.yul\":2081:2099   */\n      add\n        /* \"#utility.yul\":2073:2099   */\n      swap1\n      pop\n        /* \"#utility.yul\":2109:2180   */\n      tag_67\n        /* \"#utility.yul\":2177:2178   */\n      0x00\n        /* \"#utility.yul\":2166:2175   */\n      dup4\n        /* \"#utility.yul\":2162:2179   */\n      add\n        /* \"#utility.yul\":2153:2159   */\n      dup6\n        /* \"#utility.yul\":2109:2180   */\n      tag_35\n      jump\t// in\n    tag_67:\n        /* \"#utility.yul\":2190:2262   */\n      tag_68\n        /* \"#utility.yul\":2258:2260   */\n      0x20\n        /* \"#utility.yul\":2247:2256   */\n      dup4\n        /* \"#utility.yul\":2243:2261   */\n      add\n        /* \"#utility.yul\":2234:2240   */\n      dup5\n        /* \"#utility.yul\":2190:2262   */\n      tag_60\n      jump\t// in\n    tag_68:\n        /* \"#utility.yul\":1937:2269   */\n      swap4\n      swap3\n      pop\n      pop\n      pop\n      jump\t// out\n        /* \"#utility.yul\":2275:2509   */\n    tag_10:\n        /* \"#utility.yul\":2374:2378   */\n      0x00\n        /* \"#utility.yul\":2412:2414   */\n      0x20\n        /* \"#utility.yul\":2401:2410   */\n      dup3\n        /* \"#utility.yul\":2397:2415   */\n      add\n        /* \"#utility.yul\":2389:2415   */\n      swap1\n      pop\n        /* \"#utility.yul\":2425:2502   */\n      tag_70\n        /* \"#utility.yul\":2499:2500   */\n      0x00\n        /* \"#utility.yul\":2488:2497   */\n      dup4\n        /* \"#utility.yul\":2484:2501   */\n      add\n        /* \"#utility.yul\":2475:2481   */\n      dup5\n        /* \"#utility.yul\":2425:2502   */\n      tag_39\n      jump\t// in\n    tag_70:\n        /* \"#utility.yul\":2275:2509   */\n      swap3\n      swap2\n      pop\n      pop\n      jump\t// out\n        /* \"#utility.yul\":2515:2934   */\n    tag_14:\n        /* \"#utility.yul\":2681:2685   */\n      0x00\n        /* \"#utility.yul\":2719:2721   */\n      0x20\n        /* \"#utility.yul\":2708:2717   */\n      dup3\n        /* \"#utility.yul\":2704:2722   */\n      add\n        /* \"#utility.yul\":2696:2722   */\n      swap1\n      pop\n        /* \"#utility.yul\":2768:2777   */\n      dup2\n        /* \"#utility.yul\":2762:2766   */\n      dup2\n        /* \"#utility.yul\":2758:2778   */\n      sub\n        /* \"#utility.yul\":2754:2755   */\n      0x00\n        /* \"#utility.yul\":2743:2752   */\n      dup4\n        /* \"#utility.yul\":2739:2756   */\n      add\n        /* \"#utility.yul\":2732:2779   */\n      mstore\n        /* \"#utility.yul\":2796:2927   */\n      tag_72\n        /* \"#utility.yul\":2922:2926   */\n      dup2\n        /* \"#utility.yul\":2796:2927   */\n      tag_43\n      jump\t// in\n    tag_72:\n        /* \"#utility.yul\":2788:2927   */\n      swap1\n      pop\n        /* \"#utility.yul\":2515:2934   */\n      swap2\n      swap1\n      pop\n      jump\t// out\n        /* \"#utility.yul\":2940:3359   */\n    tag_23:\n        /* \"#utility.yul\":3106:3110   */\n      0x00\n        /* \"#utility.yul\":3144:3146   */\n      0x20\n        /* \"#utility.yul\":3133:3142   */\n      dup3\n        /* \"#utility.yul\":3129:3147   */\n      add\n        /* \"#utility.yul\":3121:3147   */\n      swap1\n      pop\n        /* \"#utility.yul\":3193:3202   */\n      dup2\n        /* \"#utility.yul\":3187:3191   */\n      dup2\n        /* \"#utility.yul\":3183:3203   */\n      sub\n        /* \"#utility.yul\":3179:3180   */\n      0x00\n        /* \"#utility.yul\":3168:3177   */\n      dup4\n        /* \"#utility.yul\":3164:3181   */\n      add\n        /* \"#utility.yul\":3157:3204   */\n      mstore\n        /* \"#utility.yul\":3221:3352   */\n      tag_74\n        /* \"#utility.yul\":3347:3351   */\n      dup2\n        /* \"#utility.yul\":3221:3352   */\n      tag_49\n      jump\t// in\n    tag_74:\n        /* \"#utility.yul\":3213:3352   */\n      swap1\n      pop\n        /* \"#utility.yul\":2940:3359   */\n      swap2\n      swap1\n      pop\n      jump\t// out\n        /* \"#utility.yul\":3365:3512   */\n    tag_57:\n        /* \"#utility.yul\":3466:3477   */\n      0x00\n        /* \"#utility.yul\":3503:3506   */\n      dup2\n        /* \"#utility.yul\":3488:3506   */\n      swap1\n      pop\n        /* \"#utility.yul\":3365:3512   */\n      swap3\n      swap2\n      pop\n      pop\n      jump\t// out\n        /* \"#utility.yul\":3518:3687   */\n    tag_46:\n        /* \"#utility.yul\":3602:3613   */\n      0x00\n        /* \"#utility.yul\":3636:3642   */\n      dup3\n        /* \"#utility.yul\":3631:3634   */\n      dup3\n        /* \"#utility.yul\":3624:3643   */\n      mstore\n        /* \"#utility.yul\":3676:3680   */\n      0x20\n        /* \"#utility.yul\":3671:3674   */\n      dup3\n        /* \"#utility.yul\":3667:3681   */\n      add\n        /* \"#utility.yul\":3652:3681   */\n      swap1\n      pop\n        /* \"#utility.yul\":3518:3687   */\n      swap3\n      swap2\n      pop\n      pop\n      jump\t// out\n        /* \"#utility.yul\":3693:3789   */\n    tag_38:\n        /* \"#utility.yul\":3730:3737   */\n      0x00\n        /* \"#utility.yul\":3759:3783   */\n      tag_78\n        /* \"#utility.yul\":3777:3782   */\n      dup3\n        /* \"#utility.yul\":3759:3783   */\n      tag_79\n      jump\t// in\n    tag_78:\n        /* \"#utility.yul\":3748:3783   */\n      swap1\n      pop\n        /* \"#utility.yul\":3693:3789   */\n      swap2\n      swap1\n      pop\n      jump\t// out\n        /* \"#utility.yul\":3795:3922   */\n    tag_80:\n        /* \"#utility.yul\":3840:3847   */\n      0x00\n        /* \"#utility.yul\":3869:3874   */\n      dup2\n        /* \"#utility.yul\":3858:3874   */\n      swap1\n      pop\n        /* \"#utility.yul\":3875:3916   */\n      tag_82\n        /* \"#utility.yul\":3910:3915   */\n      dup3\n        /* \"#utility.yul\":3875:3916   */\n      tag_83\n      jump\t// in\n    tag_82:\n        /* \"#utility.yul\":3795:3922   */\n      swap2\n      swap1\n      pop\n      jump\t// out\n        /* \"#utility.yul\":3928:4054   */\n    tag_79:\n        /* \"#utility.yul\":3965:3972   */\n      0x00\n        /* \"#utility.yul\":4005:4047   */\n      0xffffffffffffffffffffffffffffffffffffffff\n        /* \"#utility.yul\":3998:4003   */\n      dup3\n        /* \"#utility.yul\":3994:4048   */\n      and\n        /* \"#utility.yul\":3983:4048   */\n      swap1\n      pop\n        /* \"#utility.yul\":3928:4054   */\n      swap2\n      swap1\n      pop\n      jump\t// out\n        /* \"#utility.yul\":4060:4137   */\n    tag_63:\n        /* \"#utility.yul\":4097:4104   */\n      0x00\n        /* \"#utility.yul\":4126:4131   */\n      dup2\n        /* \"#utility.yul\":4115:4131   */\n      swap1\n      pop\n        /* \"#utility.yul\":4060:4137   */\n      swap2\n      swap1\n      pop\n      jump\t// out\n        /* \"#utility.yul\":4143:4270   */\n    tag_42:\n        /* \"#utility.yul\":4199:4208   */\n      0x00\n        /* \"#utility.yul\":4232:4264   */\n      tag_87\n        /* \"#utility.yul\":4258:4263   */\n      dup3\n        /* \"#utility.yul\":4232:4264   */\n      tag_80\n      jump\t// in\n    tag_87:\n        /* \"#utility.yul\":4219:4264   */\n      swap1\n      pop\n        /* \"#utility.yul\":4143:4270   */\n      swap2\n      swap1\n      pop\n      jump\t// out\n        /* \"#utility.yul\":4276:4456   */\n    tag_18:\n        /* \"#utility.yul\":4324:4401   */\n      0x4e487b7100000000000000000000000000000000000000000000000000000000\n        /* \"#utility.yul\":4321:4322   */\n      0x00\n        /* \"#utility.yul\":4314:4402   */\n      mstore\n        /* \"#utility.yul\":4421:4425   */\n      0x21\n        /* \"#utility.yul\":4418:4419   */\n      0x04\n        /* \"#utility.yul\":4411:4426   */\n      mstore\n        /* \"#utility.yul\":4445:4449   */\n      0x24\n        /* \"#utility.yul\":4442:4443   */\n      0x00\n        /* \"#utility.yul\":4435:4450   */\n      revert\n        /* \"#utility.yul\":4462:4637   */\n    tag_48:\n        /* \"#utility.yul\":4602:4629   */\n      0x6e6f7420656e6f7567682065746865722070726f766964656400000000000000\n        /* \"#utility.yul\":4598:4599   */\n      0x00\n        /* \"#utility.yul\":4590:4596   */\n      dup3\n        /* \"#utility.yul\":4586:4600   */\n      add\n        /* \"#utility.yul\":4579:4630   */\n      mstore\n        /* \"#utility.yul\":4462:4637   */\n      pop\n      jump\t// out\n        /* \"#utility.yul\":4643:4814   */\n    tag_53:\n        /* \"#utility.yul\":4783:4806   */\n      0x2074686520726f6f6d206973206f636375706965640000000000000000000000\n        /* \"#utility.yul\":4779:4780   */\n      0x00\n        /* \"#utility.yul\":4771:4777   */\n      dup3\n        /* \"#utility.yul\":4767:4781   */\n      add\n        /* \"#utility.yul\":4760:4807   */\n      mstore\n        /* \"#utility.yul\":4643:4814   */\n      pop\n      jump\t// out\n        /* \"#utility.yul\":4820:4934   */\n    tag_59:\n      pop\n      jump\t// out\n        /* \"#utility.yul\":4940:5053   */\n    tag_83:\n        /* \"#utility.yul\":5021:5022   */\n      0x02\n        /* \"#utility.yul\":5014:5019   */\n      dup2\n        /* \"#utility.yul\":5011:5023   */\n      lt\n        /* \"#utility.yul\":5001:5047   */\n      tag_93\n      jumpi\n        /* \"#utility.yul\":5027:5045   */\n      tag_94\n      tag_18\n      jump\t// in\n    tag_94:\n        /* \"#utility.yul\":5001:5047   */\n    tag_93:\n        /* \"#utility.yul\":4940:5053   */\n      pop\n      jump\t// out\n\n    auxdata: 0xa2646970667358221220704117cfc767804ca049005df6fc106ae5a80aee8e435c34f542e8bba7f23adc64736f6c63430008070033\n}\n",
				"bytecode": {
					"linkReferences": {},
					"object": "608060405234801561001057600080fd5b5033600060016101000a81548173ffffffffffffffffffffffffffffffffffffffff021916908373ffffffffffffffffffffffffffffffffffffffff16021790555060008060006101000a81548160ff0219169083600181111561007757610076610081565b5b02179055506100b0565b7f4e487b7100000000000000000000000000000000000000000000000000000000600052602160045260246000fd5b6104b0806100bf6000396000f3fe6080604052600436106100295760003560e01c806305a8da721461002e5780639e14e2b914610038575b600080fd5b610036610063565b005b34801561004457600080fd5b5061004d610225565b60405161005a919061030a565b60405180910390f35b671bc16d674ec80000803410156100af576040517f08c379a00000000000000000000000000000000000000000000000000000000081526004016100a690610325565b60405180910390fd5b600060018111156100c3576100c26103e2565b5b60008054906101000a900460ff1660018111156100e3576100e26103e2565b5b14610123576040517f08c379a000000000000000000000000000000000000000000000000000000000815260040161011a90610345565b60405180910390fd5b60016000806101000a81548160ff02191690836001811115610148576101476103e2565b5b0217905550600080600060019054906101000a900473ffffffffffffffffffffffffffffffffffffffff1673ffffffffffffffffffffffffffffffffffffffff1634604051610196906102cc565b60006040518083038185875af1925050503d80600081146101d3576040519150601f19603f3d011682016040523d82523d6000602084013e6101d8565b606091505b5091509150816101e757600080fd5b7fba951166d42eb077151bdecb7cf6027562f04f0143b0c141b1bb0a33eef5d69333346040516102189291906102e1565b60405180910390a1505050565b60008054906101000a900460ff1681565b61023f81610381565b82525050565b61024e816103d0565b82525050565b6000610261601983610370565b915061026c82610411565b602082019050919050565b6000610284601583610370565b915061028f8261043a565b602082019050919050565b60006102a7600083610365565b91506102b282610463565b600082019050919050565b6102c6816103c6565b82525050565b60006102d78261029a565b9150819050919050565b60006040820190506102f66000830185610236565b61030360208301846102bd565b9392505050565b600060208201905061031f6000830184610245565b92915050565b6000602082019050818103600083015261033e81610254565b9050919050565b6000602082019050818103600083015261035e81610277565b9050919050565b600081905092915050565b600082825260208201905092915050565b600061038c826103a6565b9050919050565b60008190506103a182610466565b919050565b600073ffffffffffffffffffffffffffffffffffffffff82169050919050565b6000819050919050565b60006103db82610393565b9050919050565b7f4e487b7100000000000000000000000000000000000000000000000000000000600052602160045260246000fd5b7f6e6f7420656e6f7567682065746865722070726f766964656400000000000000600082015250565b7f2074686520726f6f6d206973206f636375706965640000000000000000000000600082015250565b50565b60028110610477576104766103e2565b5b5056fea2646970667358221220704117cfc767804ca049005df6fc106ae5a80aee8e435c34f542e8bba7f23adc64736f6c63430008070033",
					"opcodes": "PUSH1 0x80 PUSH1 0x40 MSTORE CALLVALUE DUP1 ISZERO PUSH2 0x10 JUMPI PUSH1 0x0 DUP1 REVERT JUMPDEST POP CALLER PUSH1 0x0 PUSH1 0x1 PUSH2 0x100 EXP DUP2 SLOAD DUP2 PUSH20 0xFFFFFFFFFFFFFFFFFFFFFFFFFFFFFFFFFFFFFFFF MUL NOT AND SWAP1 DUP4 PUSH20 0xFFFFFFFFFFFFFFFFFFFFFFFFFFFFFFFFFFFFFFFF AND MUL OR SWAP1 SSTORE POP PUSH1 0x0 DUP1 PUSH1 0x0 PUSH2 0x100 EXP DUP2 SLOAD DUP2 PUSH1 0xFF MUL NOT AND SWAP1 DUP4 PUSH1 0x1 DUP2 GT ISZERO PUSH2 0x77 JUMPI PUSH2 0x76 PUSH2 0x81 JUMP JUMPDEST JUMPDEST MUL OR SWAP1 SSTORE POP PUSH2 0xB0 JUMP JUMPDEST PUSH32 0x4E487B7100000000000000000000000000000000000000000000000000000000 PUSH1 0x0 MSTORE PUSH1 0x21 PUSH1 0x4 MSTORE PUSH1 0x24 PUSH1 0x0 REVERT JUMPDEST PUSH2 0x4B0 DUP1 PUSH2 0xBF PUSH1 0x0 CODECOPY PUSH1 0x0 RETURN INVALID PUSH1 0x80 PUSH1 0x40 MSTORE PUSH1 0x4 CALLDATASIZE LT PUSH2 0x29 JUMPI PUSH1 0x0 CALLDATALOAD PUSH1 0xE0 SHR DUP1 PUSH4 0x5A8DA72 EQ PUSH2 0x2E JUMPI DUP1 PUSH4 0x9E14E2B9 EQ PUSH2 0x38 JUMPI JUMPDEST PUSH1 0x0 DUP1 REVERT JUMPDEST PUSH2 0x36 PUSH2 0x63 JUMP JUMPDEST STOP JUMPDEST CALLVALUE DUP1 ISZERO PUSH2 0x44 JUMPI PUSH1 0x0 DUP1 REVERT JUMPDEST POP PUSH2 0x4D PUSH2 0x225 JUMP JUMPDEST PUSH1 0x40 MLOAD PUSH2 0x5A SWAP2 SWAP1 PUSH2 0x30A JUMP JUMPDEST PUSH1 0x40 MLOAD DUP1 SWAP2 SUB SWAP1 RETURN JUMPDEST PUSH8 0x1BC16D674EC80000 DUP1 CALLVALUE LT ISZERO PUSH2 0xAF JUMPI PUSH1 0x40 MLOAD PUSH32 0x8C379A000000000000000000000000000000000000000000000000000000000 DUP2 MSTORE PUSH1 0x4 ADD PUSH2 0xA6 SWAP1 PUSH2 0x325 JUMP JUMPDEST PUSH1 0x40 MLOAD DUP1 SWAP2 SUB SWAP1 REVERT JUMPDEST PUSH1 0x0 PUSH1 0x1 DUP2 GT ISZERO PUSH2 0xC3 JUMPI PUSH2 0xC2 PUSH2 0x3E2 JUMP JUMPDEST JUMPDEST PUSH1 0x0 DUP1 SLOAD SWAP1 PUSH2 0x100 EXP SWAP1 DIV PUSH1 0xFF AND PUSH1 0x1 DUP2 GT ISZERO PUSH2 0xE3 JUMPI PUSH2 0xE2 PUSH2 0x3E2 JUMP JUMPDEST JUMPDEST EQ PUSH2 0x123 JUMPI PUSH1 0x40 MLOAD PUSH32 0x8C379A000000000000000000000000000000000000000000000000000000000 DUP2 MSTORE PUSH1 0x4 ADD PUSH2 0x11A SWAP1 PUSH2 0x345 JUMP JUMPDEST PUSH1 0x40 MLOAD DUP1 SWAP2 SUB SWAP1 REVERT JUMPDEST PUSH1 0x1 PUSH1 0x0 DUP1 PUSH2 0x100 EXP DUP2 SLOAD DUP2 PUSH1 0xFF MUL NOT AND SWAP1 DUP4 PUSH1 0x1 DUP2 GT ISZERO PUSH2 0x148 JUMPI PUSH2 0x147 PUSH2 0x3E2 JUMP JUMPDEST JUMPDEST MUL OR SWAP1 SSTORE POP PUSH1 0x0 DUP1 PUSH1 0x0 PUSH1 0x1 SWAP1 SLOAD SWAP1 PUSH2 0x100 EXP SWAP1 DIV PUSH20 0xFFFFFFFFFFFFFFFFFFFFFFFFFFFFFFFFFFFFFFFF AND PUSH20 0xFFFFFFFFFFFFFFFFFFFFFFFFFFFFFFFFFFFFFFFF AND CALLVALUE PUSH1 0x40 MLOAD PUSH2 0x196 SWAP1 PUSH2 0x2CC JUMP JUMPDEST PUSH1 0x0 PUSH1 0x40 MLOAD DUP1 DUP4 SUB DUP2 DUP6 DUP8 GAS CALL SWAP3 POP POP POP RETURNDATASIZE DUP1 PUSH1 0x0 DUP2 EQ PUSH2 0x1D3 JUMPI PUSH1 0x40 MLOAD SWAP2 POP PUSH1 0x1F NOT PUSH1 0x3F RETURNDATASIZE ADD AND DUP3 ADD PUSH1 0x40 MSTORE RETURNDATASIZE DUP3 MSTORE RETURNDATASIZE PUSH1 0x0 PUSH1 0x20 DUP5 ADD RETURNDATACOPY PUSH2 0x1D8 JUMP JUMPDEST PUSH1 0x60 SWAP2 POP JUMPDEST POP SWAP2 POP SWAP2 POP DUP2 PUSH2 0x1E7 JUMPI PUSH1 0x0 DUP1 REVERT JUMPDEST PUSH32 0xBA951166D42EB077151BDECB7CF6027562F04F0143B0C141B1BB0A33EEF5D693 CALLER CALLVALUE PUSH1 0x40 MLOAD PUSH2 0x218 SWAP3 SWAP2 SWAP1 PUSH2 0x2E1 JUMP JUMPDEST PUSH1 0x40 MLOAD DUP1 SWAP2 SUB SWAP1 LOG1 POP POP POP JUMP JUMPDEST PUSH1 0x0 DUP1 SLOAD SWAP1 PUSH2 0x100 EXP SWAP1 DIV PUSH1 0xFF AND DUP2 JUMP JUMPDEST PUSH2 0x23F DUP2 PUSH2 0x381 JUMP JUMPDEST DUP3 MSTORE POP POP JUMP JUMPDEST PUSH2 0x24E DUP2 PUSH2 0x3D0 JUMP JUMPDEST DUP3 MSTORE POP POP JUMP JUMPDEST PUSH1 0x0 PUSH2 0x261 PUSH1 0x19 DUP4 PUSH2 0x370 JUMP JUMPDEST SWAP2 POP PUSH2 0x26C DUP3 PUSH2 0x411 JUMP JUMPDEST PUSH1 0x20 DUP3 ADD SWAP1 POP SWAP2 SWAP1 POP JUMP JUMPDEST PUSH1 0x0 PUSH2 0x284 PUSH1 0x15 DUP4 PUSH2 0x370 JUMP JUMPDEST SWAP2 POP PUSH2 0x28F DUP3 PUSH2 0x43A JUMP JUMPDEST PUSH1 0x20 DUP3 ADD SWAP1 POP SWAP2 SWAP1 POP JUMP JUMPDEST PUSH1 0x0 PUSH2 0x2A7 PUSH1 0x0 DUP4 PUSH2 0x365 JUMP JUMPDEST SWAP2 POP PUSH2 0x2B2 DUP3 PUSH2 0x463 JUMP JUMPDEST PUSH1 0x0 DUP3 ADD SWAP1 POP SWAP2 SWAP1 POP JUMP JUMPDEST PUSH2 0x2C6 DUP2 PUSH2 0x3C6 JUMP JUMPDEST DUP3 MSTORE POP POP JUMP JUMPDEST PUSH1 0x0 PUSH2 0x2D7 DUP3 PUSH2 0x29A JUMP JUMPDEST SWAP2 POP DUP2 SWAP1 POP SWAP2 SWAP1 POP JUMP JUMPDEST PUSH1 0x0 PUSH1 0x40 DUP3 ADD SWAP1 POP PUSH2 0x2F6 PUSH1 0x0 DUP4 ADD DUP6 PUSH2 0x236 JUMP JUMPDEST PUSH2 0x303 PUSH1 0x20 DUP4 ADD DUP5 PUSH2 0x2BD JUMP JUMPDEST SWAP4 SWAP3 POP POP POP JUMP JUMPDEST PUSH1 0x0 PUSH1 0x20 DUP3 ADD SWAP1 POP PUSH2 0x31F PUSH1 0x0 DUP4 ADD DUP5 PUSH2 0x245 JUMP JUMPDEST SWAP3 SWAP2 POP POP JUMP JUMPDEST PUSH1 0x0 PUSH1 0x20 DUP3 ADD SWAP1 POP DUP2 DUP2 SUB PUSH1 0x0 DUP4 ADD MSTORE PUSH2 0x33E DUP2 PUSH2 0x254 JUMP JUMPDEST SWAP1 POP SWAP2 SWAP1 POP JUMP JUMPDEST PUSH1 0x0 PUSH1 0x20 DUP3 ADD SWAP1 POP DUP2 DUP2 SUB PUSH1 0x0 DUP4 ADD MSTORE PUSH2 0x35E DUP2 PUSH2 0x277 JUMP JUMPDEST SWAP1 POP SWAP2 SWAP1 POP JUMP JUMPDEST PUSH1 0x0 DUP2 SWAP1 POP SWAP3 SWAP2 POP POP JUMP JUMPDEST PUSH1 0x0 DUP3 DUP3 MSTORE PUSH1 0x20 DUP3 ADD SWAP1 POP SWAP3 SWAP2 POP POP JUMP JUMPDEST PUSH1 0x0 PUSH2 0x38C DUP3 PUSH2 0x3A6 JUMP JUMPDEST SWAP1 POP SWAP2 SWAP1 POP JUMP JUMPDEST PUSH1 0x0 DUP2 SWAP1 POP PUSH2 0x3A1 DUP3 PUSH2 0x466 JUMP JUMPDEST SWAP2 SWAP1 POP JUMP JUMPDEST PUSH1 0x0 PUSH20 0xFFFFFFFFFFFFFFFFFFFFFFFFFFFFFFFFFFFFFFFF DUP3 AND SWAP1 POP SWAP2 SWAP1 POP JUMP JUMPDEST PUSH1 0x0 DUP2 SWAP1 POP SWAP2 SWAP1 POP JUMP JUMPDEST PUSH1 0x0 PUSH2 0x3DB DUP3 PUSH2 0x393 JUMP JUMPDEST SWAP1 POP SWAP2 SWAP1 POP JUMP JUMPDEST PUSH32 0x4E487B7100000000000000000000000000000000000000000000000000000000 PUSH1 0x0 MSTORE PUSH1 0x21 PUSH1 0x4 MSTORE PUSH1 0x24 PUSH1 0x0 REVERT JUMPDEST PUSH32 0x6E6F7420656E6F7567682065746865722070726F766964656400000000000000 PUSH1 0x0 DUP3 ADD MSTORE POP JUMP JUMPDEST PUSH32 0x2074686520726F6F6D206973206F636375706965640000000000000000000000 PUSH1 0x0 DUP3 ADD MSTORE POP JUMP JUMPDEST POP JUMP JUMPDEST PUSH1 0x2 DUP2 LT PUSH2 0x477 JUMPI PUSH2 0x476 PUSH2 0x3E2 JUMP JUMPDEST JUMPDEST POP JUMP INVALID LOG2 PUSH5 0x6970667358 0x22 SLT KECCAK256 PUSH17 0x4117CFC767804CA049005DF6FC106AE5A8 EXP 0xEE DUP15 NUMBER 0x5C CALLVALUE CREATE2 TIMESTAMP 0xE8 0xBB 0xA7 CALLCODE GASPRICE 0xDC PUSH5 0x736F6C6343 STOP ADDMOD SMOD STOP CALLER "
				},
				"gasEstimates": {
					"creation": {
						"codeDepositCost": "240000",
						"executionCost": "48896",
						"totalCost": "288896"
					},
					"external": {
						"book()": "infinite",
						"currentstatus()": "2557"
					}
				},
				"methodIdentifiers": {
					"book()": "05a8da72",
					"currentstatus()": "9e14e2b9"
				}
			},
			"storageLayout": {
				"storage": [
					{
						"astId": 7,
						"contract": "contracts/HotelRoom.sol:HotelRoom",
						"label": "currentstatus",
						"offset": 0,
						"slot": "0",
						"type": "t_enum(status)4"
					},
					{
						"astId": 15,
						"contract": "contracts/HotelRoom.sol:HotelRoom",
						"label": "owner",
						"offset": 1,
						"slot": "0",
						"type": "t_address_payable"
					}
				],
				"types": {
					"t_address_payable": {
						"encoding": "inplace",
						"label": "address payable",
						"numberOfBytes": "20"
					},
					"t_enum(status)4": {
						"encoding": "inplace",
						"label": "enum HotelRoom.status",
						"numberOfBytes": "1"
					}
				}
			},
			"userdoc": {
				"kind": "user",
				"methods": {},
				"version": 1
			}
		}
	}
}