{
	"contracts/HotelRoom.sol": {
		"HotelRoom": {
			"abi": [
				{
					"inputs": [],
					"stateMutability": "nonpayable",
					"type": "constructor"
				},
				{
					"anonymous": false,
					"inputs": [
						{
							"indexed": false,
							"internalType": "address",
							"name": "_occupant",
							"type": "address"
						},
						{
							"indexed": false,
							"internalType": "uint256",
							"name": "_value",
							"type": "uint256"
						}
					],
					"name": "Occupy",
					"type": "event"
				},
				{
					"inputs": [],
					"name": "book",
					"outputs": [],
					"stateMutability": "payable",
					"type": "function"
				},
				{
					"inputs": [],
					"name": "checkout",
					"outputs": [
						{
							"internalType": "bool",
							"name": "success",
							"type": "bool"
						}
					],
					"stateMutability": "nonpayable",
					"type": "function"
				},
				{
					"inputs": [],
					"name": "currentstatus",
					"outputs": [
						{
							"internalType": "enum HotelRoom.status",
							"name": "",
							"type": "uint8"
						}
					],
					"stateMutability": "view",
					"type": "function"
				}
			],
			"devdoc": {
				"kind": "dev",
				"methods": {},
				"version": 1
			},
			"evm": {
				"assembly": "    /* \"contracts/HotelRoom.sol\":60:1324  contract HotelRoom {... */\n  mstore(0x40, 0x80)\n    /* \"contracts/HotelRoom.sol\":559:774  constructor (){ // constructor is spl func that runs only once when ever the contract is put on to the blockchain ... */\n  callvalue\n  dup1\n  iszero\n  tag_1\n  jumpi\n  0x00\n  dup1\n  revert\ntag_1:\n  pop\n    /* \"contracts/HotelRoom.sol\":697:707  msg.sender */\n  caller\n    /* \"contracts/HotelRoom.sol\":683:688  owner */\n  0x00\n  0x01\n    /* \"contracts/HotelRoom.sol\":683:708  owner=payable(msg.sender) */\n  0x0100\n  exp\n  dup2\n  sload\n  dup2\n  0xffffffffffffffffffffffffffffffffffffffff\n  mul\n  not\n  and\n  swap1\n  dup4\n  0xffffffffffffffffffffffffffffffffffffffff\n  and\n  mul\n  or\n  swap1\n  sstore\n  pop\n    /* \"contracts/HotelRoom.sol\":734:747  status.vacant */\n  0x00\n    /* \"contracts/HotelRoom.sol\":720:733  currentstatus */\n  dup1\n  0x00\n    /* \"contracts/HotelRoom.sol\":720:747  currentstatus=status.vacant */\n  0x0100\n  exp\n  dup2\n  sload\n  dup2\n  0xff\n  mul\n  not\n  and\n  swap1\n  dup4\n  0x01\n  dup2\n  gt\n  iszero\n  tag_4\n  jumpi\n  tag_5\n  tag_6\n  jump\t// in\ntag_5:\ntag_4:\n  mul\n  or\n  swap1\n  sstore\n  pop\n    /* \"contracts/HotelRoom.sol\":60:1324  contract HotelRoom {... */\n  jump(tag_7)\n    /* \"#utility.yul\":7:187   */\ntag_6:\n    /* \"#utility.yul\":55:132   */\n  0x4e487b7100000000000000000000000000000000000000000000000000000000\n    /* \"#utility.yul\":52:53   */\n  0x00\n    /* \"#utility.yul\":45:133   */\n  mstore\n    /* \"#utility.yul\":152:156   */\n  0x21\n    /* \"#utility.yul\":149:150   */\n  0x04\n    /* \"#utility.yul\":142:157   */\n  mstore\n    /* \"#utility.yul\":176:180   */\n  0x24\n    /* \"#utility.yul\":173:174   */\n  0x00\n    /* \"#utility.yul\":166:181   */\n  revert\n    /* \"contracts/HotelRoom.sol\":60:1324  contract HotelRoom {... */\ntag_7:\n  dataSize(sub_0)\n  dup1\n  dataOffset(sub_0)\n  0x00\n  codecopy\n  0x00\n  return\nstop\n\nsub_0: assembly {\n        /* \"contracts/HotelRoom.sol\":60:1324  contract HotelRoom {... */\n      mstore(0x40, 0x80)\n      jumpi(tag_1, lt(calldatasize, 0x04))\n      shr(0xe0, calldataload(0x00))\n      dup1\n      0x05a8da72\n      eq\n      tag_2\n      jumpi\n      dup1\n      0x06099d69\n      eq\n      tag_3\n      jumpi\n      dup1\n      0x9e14e2b9\n      eq\n      tag_4\n      jumpi\n    tag_1:\n      0x00\n      dup1\n      revert\n        /* \"contracts/HotelRoom.sol\":904:1222  function book() public payable costs(2 ether){... */\n    tag_2:\n      tag_5\n      tag_6\n      jump\t// in\n    tag_5:\n      stop\n        /* \"contracts/HotelRoom.sol\":1228:1322  function checkout() public returns(bool success) {... */\n    tag_3:\n      callvalue\n      dup1\n      iszero\n      tag_7\n      jumpi\n      0x00\n      dup1\n      revert\n    tag_7:\n      pop\n      tag_8\n      tag_9\n      jump\t// in\n    tag_8:\n      mload(0x40)\n      tag_10\n      swap2\n      swap1\n      tag_11\n      jump\t// in\n    tag_10:\n      mload(0x40)\n      dup1\n      swap2\n      sub\n      swap1\n      return\n        /* \"contracts/HotelRoom.sol\":180:207  status public currentstatus */\n    tag_4:\n      callvalue\n      dup1\n      iszero\n      tag_12\n      jumpi\n      0x00\n      dup1\n      revert\n    tag_12:\n      pop\n      tag_13\n      tag_14\n      jump\t// in\n    tag_13:\n      mload(0x40)\n      tag_15\n      swap2\n      swap1\n      tag_16\n      jump\t// in\n    tag_15:\n      mload(0x40)\n      dup1\n      swap2\n      sub\n      swap1\n      return\n        /* \"contracts/HotelRoom.sol\":904:1222  function book() public payable costs(2 ether){... */\n    tag_6:\n        /* \"contracts/HotelRoom.sol\":941:948  2 ether */\n      0x1bc16d674ec80000\n        /* \"contracts/HotelRoom.sol\":840:847  _amount */\n      dup1\n        /* \"contracts/HotelRoom.sol\":828:837  msg.value */\n      callvalue\n        /* \"contracts/HotelRoom.sol\":828:847  msg.value >=_amount */\n      lt\n      iszero\n        /* \"contracts/HotelRoom.sol\":820:877  require(msg.value >=_amount, \"not enough ether provided\") */\n      tag_18\n      jumpi\n      mload(0x40)\n      0x08c379a000000000000000000000000000000000000000000000000000000000\n      dup2\n      mstore\n      0x04\n      add\n      tag_19\n      swap1\n      tag_20\n      jump\t// in\n    tag_19:\n      mload(0x40)\n      dup1\n      swap2\n      sub\n      swap1\n      revert\n    tag_18:\n        /* \"contracts/HotelRoom.sol\":982:995  status.vacant */\n      0x00\n        /* \"contracts/HotelRoom.sol\":967:995  currentstatus==status.vacant */\n      0x01\n      dup2\n      gt\n      iszero\n      tag_22\n      jumpi\n      tag_23\n      tag_24\n      jump\t// in\n    tag_23:\n    tag_22:\n        /* \"contracts/HotelRoom.sol\":967:980  currentstatus */\n      0x00\n      dup1\n      sload\n      swap1\n      0x0100\n      exp\n      swap1\n      div\n      0xff\n      and\n        /* \"contracts/HotelRoom.sol\":967:995  currentstatus==status.vacant */\n      0x01\n      dup2\n      gt\n      iszero\n      tag_25\n      jumpi\n      tag_26\n      tag_24\n      jump\t// in\n    tag_26:\n    tag_25:\n      eq\n        /* \"contracts/HotelRoom.sol\":959:1021  require(currentstatus==status.vacant, \" the room is occupied\") */\n      tag_27\n      jumpi\n      mload(0x40)\n      0x08c379a000000000000000000000000000000000000000000000000000000000\n      dup2\n      mstore\n      0x04\n      add\n      tag_28\n      swap1\n      tag_29\n      jump\t// in\n    tag_28:\n      mload(0x40)\n      dup1\n      swap2\n      sub\n      swap1\n      revert\n    tag_27:\n        /* \"contracts/HotelRoom.sol\":1045:1060  status.occupied */\n      0x01\n        /* \"contracts/HotelRoom.sol\":1031:1044  currentstatus */\n      0x00\n      dup1\n        /* \"contracts/HotelRoom.sol\":1031:1060  currentstatus=status.occupied */\n      0x0100\n      exp\n      dup2\n      sload\n      dup2\n      0xff\n      mul\n      not\n      and\n      swap1\n      dup4\n      0x01\n      dup2\n      gt\n      iszero\n      tag_30\n      jumpi\n      tag_31\n      tag_24\n      jump\t// in\n    tag_31:\n    tag_30:\n      mul\n      or\n      swap1\n      sstore\n      pop\n        /* \"contracts/HotelRoom.sol\":1071:1080  bool sent */\n      0x00\n        /* \"contracts/HotelRoom.sol\":1081:1098  bytes memory data */\n      dup1\n        /* \"contracts/HotelRoom.sol\":1102:1107  owner */\n      0x00\n      0x01\n      swap1\n      sload\n      swap1\n      0x0100\n      exp\n      swap1\n      div\n      0xffffffffffffffffffffffffffffffffffffffff\n      and\n        /* \"contracts/HotelRoom.sol\":1102:1112  owner.call */\n      0xffffffffffffffffffffffffffffffffffffffff\n      and\n        /* \"contracts/HotelRoom.sol\":1120:1129  msg.value */\n      callvalue\n        /* \"contracts/HotelRoom.sol\":1102:1134  owner.call{value: msg.value}(\"\") */\n      mload(0x40)\n      tag_32\n      swap1\n      tag_33\n      jump\t// in\n    tag_32:\n      0x00\n      mload(0x40)\n      dup1\n      dup4\n      sub\n      dup2\n      dup6\n      dup8\n      gas\n      call\n      swap3\n      pop\n      pop\n      pop\n      returndatasize\n      dup1\n      0x00\n      dup2\n      eq\n      tag_36\n      jumpi\n      mload(0x40)\n      swap2\n      pop\n      and(add(returndatasize, 0x3f), not(0x1f))\n      dup3\n      add\n      0x40\n      mstore\n      returndatasize\n      dup3\n      mstore\n      returndatasize\n      0x00\n      0x20\n      dup5\n      add\n      returndatacopy\n      jump(tag_35)\n    tag_36:\n      0x60\n      swap2\n      pop\n    tag_35:\n      pop\n        /* \"contracts/HotelRoom.sol\":1070:1134  (bool sent,bytes memory data) = owner.call{value: msg.value}(\"\") */\n      swap2\n      pop\n      swap2\n      pop\n        /* \"contracts/HotelRoom.sol\":1152:1156  sent */\n      dup2\n        /* \"contracts/HotelRoom.sol\":1144:1157  require(sent) */\n      tag_37\n      jumpi\n      0x00\n      dup1\n      revert\n    tag_37:\n        /* \"contracts/HotelRoom.sol\":1174:1202  Occupy(msg.sender,msg.value) */\n      0xba951166d42eb077151bdecb7cf6027562f04f0143b0c141b1bb0a33eef5d693\n        /* \"contracts/HotelRoom.sol\":1181:1191  msg.sender */\n      caller\n        /* \"contracts/HotelRoom.sol\":1192:1201  msg.value */\n      callvalue\n        /* \"contracts/HotelRoom.sol\":1174:1202  Occupy(msg.sender,msg.value) */\n      mload(0x40)\n      tag_38\n      swap3\n      swap2\n      swap1\n      tag_39\n      jump\t// in\n    tag_38:\n      mload(0x40)\n      dup1\n      swap2\n      sub\n      swap1\n      log1\n        /* \"contracts/HotelRoom.sol\":949:1222  {... */\n      pop\n      pop\n        /* \"contracts/HotelRoom.sol\":904:1222  function book() public payable costs(2 ether){... */\n      pop\n      jump\t// out\n        /* \"contracts/HotelRoom.sol\":1228:1322  function checkout() public returns(bool success) {... */\n    tag_9:\n        /* \"contracts/HotelRoom.sol\":1263:1275  bool success */\n      0x00\n        /* \"contracts/HotelRoom.sol\":1302:1315  status.vacant */\n      dup1\n        /* \"contracts/HotelRoom.sol\":1287:1315  currentstatus==status.vacant */\n      0x01\n      dup2\n      gt\n      iszero\n      tag_41\n      jumpi\n      tag_42\n      tag_24\n      jump\t// in\n    tag_42:\n    tag_41:\n        /* \"contracts/HotelRoom.sol\":1287:1300  currentstatus */\n      0x00\n      dup1\n      sload\n      swap1\n      0x0100\n      exp\n      swap1\n      div\n      0xff\n      and\n        /* \"contracts/HotelRoom.sol\":1287:1315  currentstatus==status.vacant */\n      0x01\n      dup2\n      gt\n      iszero\n      tag_43\n      jumpi\n      tag_44\n      tag_24\n      jump\t// in\n    tag_44:\n    tag_43:\n      pop\n      pop\n        /* \"contracts/HotelRoom.sol\":1228:1322  function checkout() public returns(bool success) {... */\n      swap1\n      jump\t// out\n        /* \"contracts/HotelRoom.sol\":180:207  status public currentstatus */\n    tag_14:\n      0x00\n      dup1\n      sload\n      swap1\n      0x0100\n      exp\n      swap1\n      div\n      0xff\n      and\n      dup2\n      jump\t// out\n        /* \"#utility.yul\":7:125   */\n    tag_46:\n        /* \"#utility.yul\":94:118   */\n      tag_48\n        /* \"#utility.yul\":112:117   */\n      dup2\n        /* \"#utility.yul\":94:118   */\n      tag_49\n      jump\t// in\n    tag_48:\n        /* \"#utility.yul\":89:92   */\n      dup3\n        /* \"#utility.yul\":82:119   */\n      mstore\n        /* \"#utility.yul\":7:125   */\n      pop\n      pop\n      jump\t// out\n        /* \"#utility.yul\":131:240   */\n    tag_50:\n        /* \"#utility.yul\":212:233   */\n      tag_52\n        /* \"#utility.yul\":227:232   */\n      dup2\n        /* \"#utility.yul\":212:233   */\n      tag_53\n      jump\t// in\n    tag_52:\n        /* \"#utility.yul\":207:210   */\n      dup3\n        /* \"#utility.yul\":200:234   */\n      mstore\n        /* \"#utility.yul\":131:240   */\n      pop\n      pop\n      jump\t// out\n        /* \"#utility.yul\":246:389   */\n    tag_54:\n        /* \"#utility.yul\":339:382   */\n      tag_56\n        /* \"#utility.yul\":376:381   */\n      dup2\n        /* \"#utility.yul\":339:382   */\n      tag_57\n      jump\t// in\n    tag_56:\n        /* \"#utility.yul\":334:337   */\n      dup3\n        /* \"#utility.yul\":327:383   */\n      mstore\n        /* \"#utility.yul\":246:389   */\n      pop\n      pop\n      jump\t// out\n        /* \"#utility.yul\":395:761   */\n    tag_58:\n        /* \"#utility.yul\":537:540   */\n      0x00\n        /* \"#utility.yul\":558:625   */\n      tag_60\n        /* \"#utility.yul\":622:624   */\n      0x19\n        /* \"#utility.yul\":617:620   */\n      dup4\n        /* \"#utility.yul\":558:625   */\n      tag_61\n      jump\t// in\n    tag_60:\n        /* \"#utility.yul\":551:625   */\n      swap2\n      pop\n        /* \"#utility.yul\":634:727   */\n      tag_62\n        /* \"#utility.yul\":723:726   */\n      dup3\n        /* \"#utility.yul\":634:727   */\n      tag_63\n      jump\t// in\n    tag_62:\n        /* \"#utility.yul\":752:754   */\n      0x20\n        /* \"#utility.yul\":747:750   */\n      dup3\n        /* \"#utility.yul\":743:755   */\n      add\n        /* \"#utility.yul\":736:755   */\n      swap1\n      pop\n        /* \"#utility.yul\":395:761   */\n      swap2\n      swap1\n      pop\n      jump\t// out\n        /* \"#utility.yul\":767:1133   */\n    tag_64:\n        /* \"#utility.yul\":909:912   */\n      0x00\n        /* \"#utility.yul\":930:997   */\n      tag_66\n        /* \"#utility.yul\":994:996   */\n      0x15\n        /* \"#utility.yul\":989:992   */\n      dup4\n        /* \"#utility.yul\":930:997   */\n      tag_61\n      jump\t// in\n    tag_66:\n        /* \"#utility.yul\":923:997   */\n      swap2\n      pop\n        /* \"#utility.yul\":1006:1099   */\n      tag_67\n        /* \"#utility.yul\":1095:1098   */\n      dup3\n        /* \"#utility.yul\":1006:1099   */\n      tag_68\n      jump\t// in\n    tag_67:\n        /* \"#utility.yul\":1124:1126   */\n      0x20\n        /* \"#utility.yul\":1119:1122   */\n      dup3\n        /* \"#utility.yul\":1115:1127   */\n      add\n        /* \"#utility.yul\":1108:1127   */\n      swap1\n      pop\n        /* \"#utility.yul\":767:1133   */\n      swap2\n      swap1\n      pop\n      jump\t// out\n        /* \"#utility.yul\":1139:1537   */\n    tag_69:\n        /* \"#utility.yul\":1298:1301   */\n      0x00\n        /* \"#utility.yul\":1319:1402   */\n      tag_71\n        /* \"#utility.yul\":1400:1401   */\n      0x00\n        /* \"#utility.yul\":1395:1398   */\n      dup4\n        /* \"#utility.yul\":1319:1402   */\n      tag_72\n      jump\t// in\n    tag_71:\n        /* \"#utility.yul\":1312:1402   */\n      swap2\n      pop\n        /* \"#utility.yul\":1411:1504   */\n      tag_73\n        /* \"#utility.yul\":1500:1503   */\n      dup3\n        /* \"#utility.yul\":1411:1504   */\n      tag_74\n      jump\t// in\n    tag_73:\n        /* \"#utility.yul\":1529:1530   */\n      0x00\n        /* \"#utility.yul\":1524:1527   */\n      dup3\n        /* \"#utility.yul\":1520:1531   */\n      add\n        /* \"#utility.yul\":1513:1531   */\n      swap1\n      pop\n        /* \"#utility.yul\":1139:1537   */\n      swap2\n      swap1\n      pop\n      jump\t// out\n        /* \"#utility.yul\":1543:1661   */\n    tag_75:\n        /* \"#utility.yul\":1630:1654   */\n      tag_77\n        /* \"#utility.yul\":1648:1653   */\n      dup2\n        /* \"#utility.yul\":1630:1654   */\n      tag_78\n      jump\t// in\n    tag_77:\n        /* \"#utility.yul\":1625:1628   */\n      dup3\n        /* \"#utility.yul\":1618:1655   */\n      mstore\n        /* \"#utility.yul\":1543:1661   */\n      pop\n      pop\n      jump\t// out\n        /* \"#utility.yul\":1667:2046   */\n    tag_33:\n        /* \"#utility.yul\":1851:1854   */\n      0x00\n        /* \"#utility.yul\":1873:2020   */\n      tag_80\n        /* \"#utility.yul\":2016:2019   */\n      dup3\n        /* \"#utility.yul\":1873:2020   */\n      tag_69\n      jump\t// in\n    tag_80:\n        /* \"#utility.yul\":1866:2020   */\n      swap2\n      pop\n        /* \"#utility.yul\":2037:2040   */\n      dup2\n        /* \"#utility.yul\":2030:2040   */\n      swap1\n      pop\n        /* \"#utility.yul\":1667:2046   */\n      swap2\n      swap1\n      pop\n      jump\t// out\n        /* \"#utility.yul\":2052:2384   */\n    tag_39:\n        /* \"#utility.yul\":2173:2177   */\n      0x00\n        /* \"#utility.yul\":2211:2213   */\n      0x40\n        /* \"#utility.yul\":2200:2209   */\n      dup3\n        /* \"#utility.yul\":2196:2214   */\n      add\n        /* \"#utility.yul\":2188:2214   */\n      swap1\n      pop\n        /* \"#utility.yul\":2224:2295   */\n      tag_82\n        /* \"#utility.yul\":2292:2293   */\n      0x00\n        /* \"#utility.yul\":2281:2290   */\n      dup4\n        /* \"#utility.yul\":2277:2294   */\n      add\n        /* \"#utility.yul\":2268:2274   */\n      dup6\n        /* \"#utility.yul\":2224:2295   */\n      tag_46\n      jump\t// in\n    tag_82:\n        /* \"#utility.yul\":2305:2377   */\n      tag_83\n        /* \"#utility.yul\":2373:2375   */\n      0x20\n        /* \"#utility.yul\":2362:2371   */\n      dup4\n        /* \"#utility.yul\":2358:2376   */\n      add\n        /* \"#utility.yul\":2349:2355   */\n      dup5\n        /* \"#utility.yul\":2305:2377   */\n      tag_75\n      jump\t// in\n    tag_83:\n        /* \"#utility.yul\":2052:2384   */\n      swap4\n      swap3\n      pop\n      pop\n      pop\n      jump\t// out\n        /* \"#utility.yul\":2390:2600   */\n    tag_11:\n        /* \"#utility.yul\":2477:2481   */\n      0x00\n        /* \"#utility.yul\":2515:2517   */\n      0x20\n        /* \"#utility.yul\":2504:2513   */\n      dup3\n        /* \"#utility.yul\":2500:2518   */\n      add\n        /* \"#utility.yul\":2492:2518   */\n      swap1\n      pop\n        /* \"#utility.yul\":2528:2593   */\n      tag_85\n        /* \"#utility.yul\":2590:2591   */\n      0x00\n        /* \"#utility.yul\":2579:2588   */\n      dup4\n        /* \"#utility.yul\":2575:2592   */\n      add\n        /* \"#utility.yul\":2566:2572   */\n      dup5\n        /* \"#utility.yul\":2528:2593   */\n      tag_50\n      jump\t// in\n    tag_85:\n        /* \"#utility.yul\":2390:2600   */\n      swap3\n      swap2\n      pop\n      pop\n      jump\t// out\n        /* \"#utility.yul\":2606:2840   */\n    tag_16:\n        /* \"#utility.yul\":2705:2709   */\n      0x00\n        /* \"#utility.yul\":2743:2745   */\n      0x20\n        /* \"#utility.yul\":2732:2741   */\n      dup3\n        /* \"#utility.yul\":2728:2746   */\n      add\n        /* \"#utility.yul\":2720:2746   */\n      swap1\n      pop\n        /* \"#utility.yul\":2756:2833   */\n      tag_87\n        /* \"#utility.yul\":2830:2831   */\n      0x00\n        /* \"#utility.yul\":2819:2828   */\n      dup4\n        /* \"#utility.yul\":2815:2832   */\n      add\n        /* \"#utility.yul\":2806:2812   */\n      dup5\n        /* \"#utility.yul\":2756:2833   */\n      tag_54\n      jump\t// in\n    tag_87:\n        /* \"#utility.yul\":2606:2840   */\n      swap3\n      swap2\n      pop\n      pop\n      jump\t// out\n        /* \"#utility.yul\":2846:3265   */\n    tag_20:\n        /* \"#utility.yul\":3012:3016   */\n      0x00\n        /* \"#utility.yul\":3050:3052   */\n      0x20\n        /* \"#utility.yul\":3039:3048   */\n      dup3\n        /* \"#utility.yul\":3035:3053   */\n      add\n        /* \"#utility.yul\":3027:3053   */\n      swap1\n      pop\n        /* \"#utility.yul\":3099:3108   */\n      dup2\n        /* \"#utility.yul\":3093:3097   */\n      dup2\n        /* \"#utility.yul\":3089:3109   */\n      sub\n        /* \"#utility.yul\":3085:3086   */\n      0x00\n        /* \"#utility.yul\":3074:3083   */\n      dup4\n        /* \"#utility.yul\":3070:3087   */\n      add\n        /* \"#utility.yul\":3063:3110   */\n      mstore\n        /* \"#utility.yul\":3127:3258   */\n      tag_89\n        /* \"#utility.yul\":3253:3257   */\n      dup2\n        /* \"#utility.yul\":3127:3258   */\n      tag_58\n      jump\t// in\n    tag_89:\n        /* \"#utility.yul\":3119:3258   */\n      swap1\n      pop\n        /* \"#utility.yul\":2846:3265   */\n      swap2\n      swap1\n      pop\n      jump\t// out\n        /* \"#utility.yul\":3271:3690   */\n    tag_29:\n        /* \"#utility.yul\":3437:3441   */\n      0x00\n        /* \"#utility.yul\":3475:3477   */\n      0x20\n        /* \"#utility.yul\":3464:3473   */\n      dup3\n        /* \"#utility.yul\":3460:3478   */\n      add\n        /* \"#utility.yul\":3452:3478   */\n      swap1\n      pop\n        /* \"#utility.yul\":3524:3533   */\n      dup2\n        /* \"#utility.yul\":3518:3522   */\n      dup2\n        /* \"#utility.yul\":3514:3534   */\n      sub\n        /* \"#utility.yul\":3510:3511   */\n      0x00\n        /* \"#utility.yul\":3499:3508   */\n      dup4\n        /* \"#utility.yul\":3495:3512   */\n      add\n        /* \"#utility.yul\":3488:3535   */\n      mstore\n        /* \"#utility.yul\":3552:3683   */\n      tag_91\n        /* \"#utility.yul\":3678:3682   */\n      dup2\n        /* \"#utility.yul\":3552:3683   */\n      tag_64\n      jump\t// in\n    tag_91:\n        /* \"#utility.yul\":3544:3683   */\n      swap1\n      pop\n        /* \"#utility.yul\":3271:3690   */\n      swap2\n      swap1\n      pop\n      jump\t// out\n        /* \"#utility.yul\":3696:3843   */\n    tag_72:\n        /* \"#utility.yul\":3797:3808   */\n      0x00\n        /* \"#utility.yul\":3834:3837   */\n      dup2\n        /* \"#utility.yul\":3819:3837   */\n      swap1\n      pop\n        /* \"#utility.yul\":3696:3843   */\n      swap3\n      swap2\n      pop\n      pop\n      jump\t// out\n        /* \"#utility.yul\":3849:4018   */\n    tag_61:\n        /* \"#utility.yul\":3933:3944   */\n      0x00\n        /* \"#utility.yul\":3967:3973   */\n      dup3\n        /* \"#utility.yul\":3962:3965   */\n      dup3\n        /* \"#utility.yul\":3955:3974   */\n      mstore\n        /* \"#utility.yul\":4007:4011   */\n      0x20\n        /* \"#utility.yul\":4002:4005   */\n      dup3\n        /* \"#utility.yul\":3998:4012   */\n      add\n        /* \"#utility.yul\":3983:4012   */\n      swap1\n      pop\n        /* \"#utility.yul\":3849:4018   */\n      swap3\n      swap2\n      pop\n      pop\n      jump\t// out\n        /* \"#utility.yul\":4024:4120   */\n    tag_49:\n        /* \"#utility.yul\":4061:4068   */\n      0x00\n        /* \"#utility.yul\":4090:4114   */\n      tag_95\n        /* \"#utility.yul\":4108:4113   */\n      dup3\n        /* \"#utility.yul\":4090:4114   */\n      tag_96\n      jump\t// in\n    tag_95:\n        /* \"#utility.yul\":4079:4114   */\n      swap1\n      pop\n        /* \"#utility.yul\":4024:4120   */\n      swap2\n      swap1\n      pop\n      jump\t// out\n        /* \"#utility.yul\":4126:4216   */\n    tag_53:\n        /* \"#utility.yul\":4160:4167   */\n      0x00\n        /* \"#utility.yul\":4203:4208   */\n      dup2\n        /* \"#utility.yul\":4196:4209   */\n      iszero\n        /* \"#utility.yul\":4189:4210   */\n      iszero\n        /* \"#utility.yul\":4178:4210   */\n      swap1\n      pop\n        /* \"#utility.yul\":4126:4216   */\n      swap2\n      swap1\n      pop\n      jump\t// out\n        /* \"#utility.yul\":4222:4349   */\n    tag_98:\n        /* \"#utility.yul\":4267:4274   */\n      0x00\n        /* \"#utility.yul\":4296:4301   */\n      dup2\n        /* \"#utility.yul\":4285:4301   */\n      swap1\n      pop\n        /* \"#utility.yul\":4302:4343   */\n      tag_100\n        /* \"#utility.yul\":4337:4342   */\n      dup3\n        /* \"#utility.yul\":4302:4343   */\n      tag_101\n      jump\t// in\n    tag_100:\n        /* \"#utility.yul\":4222:4349   */\n      swap2\n      swap1\n      pop\n      jump\t// out\n        /* \"#utility.yul\":4355:4481   */\n    tag_96:\n        /* \"#utility.yul\":4392:4399   */\n      0x00\n        /* \"#utility.yul\":4432:4474   */\n      0xffffffffffffffffffffffffffffffffffffffff\n        /* \"#utility.yul\":4425:4430   */\n      dup3\n        /* \"#utility.yul\":4421:4475   */\n      and\n        /* \"#utility.yul\":4410:4475   */\n      swap1\n      pop\n        /* \"#utility.yul\":4355:4481   */\n      swap2\n      swap1\n      pop\n      jump\t// out\n        /* \"#utility.yul\":4487:4564   */\n    tag_78:\n        /* \"#utility.yul\":4524:4531   */\n      0x00\n        /* \"#utility.yul\":4553:4558   */\n      dup2\n        /* \"#utility.yul\":4542:4558   */\n      swap1\n      pop\n        /* \"#utility.yul\":4487:4564   */\n      swap2\n      swap1\n      pop\n      jump\t// out\n        /* \"#utility.yul\":4570:4697   */\n    tag_57:\n        /* \"#utility.yul\":4626:4635   */\n      0x00\n        /* \"#utility.yul\":4659:4691   */\n      tag_105\n        /* \"#utility.yul\":4685:4690   */\n      dup3\n        /* \"#utility.yul\":4659:4691   */\n      tag_98\n      jump\t// in\n    tag_105:\n        /* \"#utility.yul\":4646:4691   */\n      swap1\n      pop\n        /* \"#utility.yul\":4570:4697   */\n      swap2\n      swap1\n      pop\n      jump\t// out\n        /* \"#utility.yul\":4703:4883   */\n    tag_24:\n        /* \"#utility.yul\":4751:4828   */\n      0x4e487b7100000000000000000000000000000000000000000000000000000000\n        /* \"#utility.yul\":4748:4749   */\n      0x00\n        /* \"#utility.yul\":4741:4829   */\n      mstore\n        /* \"#utility.yul\":4848:4852   */\n      0x21\n        /* \"#utility.yul\":4845:4846   */\n      0x04\n        /* \"#utility.yul\":4838:4853   */\n      mstore\n        /* \"#utility.yul\":4872:4876   */\n      0x24\n        /* \"#utility.yul\":4869:4870   */\n      0x00\n        /* \"#utility.yul\":4862:4877   */\n      revert\n        /* \"#utility.yul\":4889:5064   */\n    tag_63:\n        /* \"#utility.yul\":5029:5056   */\n      0x6e6f7420656e6f7567682065746865722070726f766964656400000000000000\n        /* \"#utility.yul\":5025:5026   */\n      0x00\n        /* \"#utility.yul\":5017:5023   */\n      dup3\n        /* \"#utility.yul\":5013:5027   */\n      add\n        /* \"#utility.yul\":5006:5057   */\n      mstore\n        /* \"#utility.yul\":4889:5064   */\n      pop\n      jump\t// out\n        /* \"#utility.yul\":5070:5241   */\n    tag_68:\n        /* \"#utility.yul\":5210:5233   */\n      0x2074686520726f6f6d206973206f636375706965640000000000000000000000\n        /* \"#utility.yul\":5206:5207   */\n      0x00\n        /* \"#utility.yul\":5198:5204   */\n      dup3\n        /* \"#utility.yul\":5194:5208   */\n      add\n        /* \"#utility.yul\":5187:5234   */\n      mstore\n        /* \"#utility.yul\":5070:5241   */\n      pop\n      jump\t// out\n        /* \"#utility.yul\":5247:5361   */\n    tag_74:\n      pop\n      jump\t// out\n        /* \"#utility.yul\":5367:5480   */\n    tag_101:\n        /* \"#utility.yul\":5448:5449   */\n      0x02\n        /* \"#utility.yul\":5441:5446   */\n      dup2\n        /* \"#utility.yul\":5438:5450   */\n      lt\n        /* \"#utility.yul\":5428:5474   */\n      tag_111\n      jumpi\n        /* \"#utility.yul\":5454:5472   */\n      tag_112\n      tag_24\n      jump\t// in\n    tag_112:\n        /* \"#utility.yul\":5428:5474   */\n    tag_111:\n        /* \"#utility.yul\":5367:5480   */\n      pop\n      jump\t// out\n\n    auxdata: 0xa26469706673582212209e888335094ba125df8f80d79faa91db002c943bedd08bef9993893d605da43164736f6c63430008070033\n}\n",
				"bytecode": {
					"linkReferences": {},
					"object": "608060405234801561001057600080fd5b5033600060016101000a81548173ffffffffffffffffffffffffffffffffffffffff021916908373ffffffffffffffffffffffffffffffffffffffff16021790555060008060006101000a81548160ff0219169083600181111561007757610076610081565b5b02179055506100b0565b7f4e487b7100000000000000000000000000000000000000000000000000000000600052602160045260246000fd5b610556806100bf6000396000f3fe6080604052600436106100345760003560e01c806305a8da721461003957806306099d69146100435780639e14e2b91461006e575b600080fd5b610041610099565b005b34801561004f57600080fd5b5061005861025b565b6040516100659190610389565b60405180910390f35b34801561007a57600080fd5b50610083610295565b60405161009091906103a4565b60405180910390f35b671bc16d674ec80000803410156100e5576040517f08c379a00000000000000000000000000000000000000000000000000000000081526004016100dc906103bf565b60405180910390fd5b600060018111156100f9576100f8610488565b5b60008054906101000a900460ff16600181111561011957610118610488565b5b14610159576040517f08c379a0000000000000000000000000000000000000000000000000000000008152600401610150906103df565b60405180910390fd5b60016000806101000a81548160ff0219169083600181111561017e5761017d610488565b5b0217905550600080600060019054906101000a900473ffffffffffffffffffffffffffffffffffffffff1673ffffffffffffffffffffffffffffffffffffffff16346040516101cc9061034b565b60006040518083038185875af1925050503d8060008114610209576040519150601f19603f3d011682016040523d82523d6000602084013e61020e565b606091505b50915091508161021d57600080fd5b7fba951166d42eb077151bdecb7cf6027562f04f0143b0c141b1bb0a33eef5d693333460405161024e929190610360565b60405180910390a1505050565b60008060018111156102705761026f610488565b5b60008054906101000a900460ff1660018111156102905761028f610488565b5b505090565b60008054906101000a900460ff1681565b6102af8161041b565b82525050565b6102be8161042d565b82525050565b6102cd81610476565b82525050565b60006102e060198361040a565b91506102eb826104b7565b602082019050919050565b600061030360158361040a565b915061030e826104e0565b602082019050919050565b60006103266000836103ff565b915061033182610509565b600082019050919050565b6103458161046c565b82525050565b600061035682610319565b9150819050919050565b600060408201905061037560008301856102a6565b610382602083018461033c565b9392505050565b600060208201905061039e60008301846102b5565b92915050565b60006020820190506103b960008301846102c4565b92915050565b600060208201905081810360008301526103d8816102d3565b9050919050565b600060208201905081810360008301526103f8816102f6565b9050919050565b600081905092915050565b600082825260208201905092915050565b60006104268261044c565b9050919050565b60008115159050919050565b60008190506104478261050c565b919050565b600073ffffffffffffffffffffffffffffffffffffffff82169050919050565b6000819050919050565b600061048182610439565b9050919050565b7f4e487b7100000000000000000000000000000000000000000000000000000000600052602160045260246000fd5b7f6e6f7420656e6f7567682065746865722070726f766964656400000000000000600082015250565b7f2074686520726f6f6d206973206f636375706965640000000000000000000000600082015250565b50565b6002811061051d5761051c610488565b5b5056fea26469706673582212209e888335094ba125df8f80d79faa91db002c943bedd08bef9993893d605da43164736f6c63430008070033",
					"opcodes": "PUSH1 0x80 PUSH1 0x40 MSTORE CALLVALUE DUP1 ISZERO PUSH2 0x10 JUMPI PUSH1 0x0 DUP1 REVERT JUMPDEST POP CALLER PUSH1 0x0 PUSH1 0x1 PUSH2 0x100 EXP DUP2 SLOAD DUP2 PUSH20 0xFFFFFFFFFFFFFFFFFFFFFFFFFFFFFFFFFFFFFFFF MUL NOT AND SWAP1 DUP4 PUSH20 0xFFFFFFFFFFFFFFFFFFFFFFFFFFFFFFFFFFFFFFFF AND MUL OR SWAP1 SSTORE POP PUSH1 0x0 DUP1 PUSH1 0x0 PUSH2 0x100 EXP DUP2 SLOAD DUP2 PUSH1 0xFF MUL NOT AND SWAP1 DUP4 PUSH1 0x1 DUP2 GT ISZERO PUSH2 0x77 JUMPI PUSH2 0x76 PUSH2 0x81 JUMP JUMPDEST JUMPDEST MUL OR SWAP1 SSTORE POP PUSH2 0xB0 JUMP JUMPDEST PUSH32 0x4E487B7100000000000000000000000000000000000000000000000000000000 PUSH1 0x0 MSTORE PUSH1 0x21 PUSH1 0x4 MSTORE PUSH1 0x24 PUSH1 0x0 REVERT JUMPDEST PUSH2 0x556 DUP1 PUSH2 0xBF PUSH1 0x0 CODECOPY PUSH1 0x0 RETURN INVALID PUSH1 0x80 PUSH1 0x40 MSTORE PUSH1 0x4 CALLDATASIZE LT PUSH2 0x34 JUMPI PUSH1 0x0 CALLDATALOAD PUSH1 0xE0 SHR DUP1 PUSH4 0x5A8DA72 EQ PUSH2 0x39 JUMPI DUP1 PUSH4 0x6099D69 EQ PUSH2 0x43 JUMPI DUP1 PUSH4 0x9E14E2B9 EQ PUSH2 0x6E JUMPI JUMPDEST PUSH1 0x0 DUP1 REVERT JUMPDEST PUSH2 0x41 PUSH2 0x99 JUMP JUMPDEST STOP JUMPDEST CALLVALUE DUP1 ISZERO PUSH2 0x4F JUMPI PUSH1 0x0 DUP1 REVERT JUMPDEST POP PUSH2 0x58 PUSH2 0x25B JUMP JUMPDEST PUSH1 0x40 MLOAD PUSH2 0x65 SWAP2 SWAP1 PUSH2 0x389 JUMP JUMPDEST PUSH1 0x40 MLOAD DUP1 SWAP2 SUB SWAP1 RETURN JUMPDEST CALLVALUE DUP1 ISZERO PUSH2 0x7A JUMPI PUSH1 0x0 DUP1 REVERT JUMPDEST POP PUSH2 0x83 PUSH2 0x295 JUMP JUMPDEST PUSH1 0x40 MLOAD PUSH2 0x90 SWAP2 SWAP1 PUSH2 0x3A4 JUMP JUMPDEST PUSH1 0x40 MLOAD DUP1 SWAP2 SUB SWAP1 RETURN JUMPDEST PUSH8 0x1BC16D674EC80000 DUP1 CALLVALUE LT ISZERO PUSH2 0xE5 JUMPI PUSH1 0x40 MLOAD PUSH32 0x8C379A000000000000000000000000000000000000000000000000000000000 DUP2 MSTORE PUSH1 0x4 ADD PUSH2 0xDC SWAP1 PUSH2 0x3BF JUMP JUMPDEST PUSH1 0x40 MLOAD DUP1 SWAP2 SUB SWAP1 REVERT JUMPDEST PUSH1 0x0 PUSH1 0x1 DUP2 GT ISZERO PUSH2 0xF9 JUMPI PUSH2 0xF8 PUSH2 0x488 JUMP JUMPDEST JUMPDEST PUSH1 0x0 DUP1 SLOAD SWAP1 PUSH2 0x100 EXP SWAP1 DIV PUSH1 0xFF AND PUSH1 0x1 DUP2 GT ISZERO PUSH2 0x119 JUMPI PUSH2 0x118 PUSH2 0x488 JUMP JUMPDEST JUMPDEST EQ PUSH2 0x159 JUMPI PUSH1 0x40 MLOAD PUSH32 0x8C379A000000000000000000000000000000000000000000000000000000000 DUP2 MSTORE PUSH1 0x4 ADD PUSH2 0x150 SWAP1 PUSH2 0x3DF JUMP JUMPDEST PUSH1 0x40 MLOAD DUP1 SWAP2 SUB SWAP1 REVERT JUMPDEST PUSH1 0x1 PUSH1 0x0 DUP1 PUSH2 0x100 EXP DUP2 SLOAD DUP2 PUSH1 0xFF MUL NOT AND SWAP1 DUP4 PUSH1 0x1 DUP2 GT ISZERO PUSH2 0x17E JUMPI PUSH2 0x17D PUSH2 0x488 JUMP JUMPDEST JUMPDEST MUL OR SWAP1 SSTORE POP PUSH1 0x0 DUP1 PUSH1 0x0 PUSH1 0x1 SWAP1 SLOAD SWAP1 PUSH2 0x100 EXP SWAP1 DIV PUSH20 0xFFFFFFFFFFFFFFFFFFFFFFFFFFFFFFFFFFFFFFFF AND PUSH20 0xFFFFFFFFFFFFFFFFFFFFFFFFFFFFFFFFFFFFFFFF AND CALLVALUE PUSH1 0x40 MLOAD PUSH2 0x1CC SWAP1 PUSH2 0x34B JUMP JUMPDEST PUSH1 0x0 PUSH1 0x40 MLOAD DUP1 DUP4 SUB DUP2 DUP6 DUP8 GAS CALL SWAP3 POP POP POP RETURNDATASIZE DUP1 PUSH1 0x0 DUP2 EQ PUSH2 0x209 JUMPI PUSH1 0x40 MLOAD SWAP2 POP PUSH1 0x1F NOT PUSH1 0x3F RETURNDATASIZE ADD AND DUP3 ADD PUSH1 0x40 MSTORE RETURNDATASIZE DUP3 MSTORE RETURNDATASIZE PUSH1 0x0 PUSH1 0x20 DUP5 ADD RETURNDATACOPY PUSH2 0x20E JUMP JUMPDEST PUSH1 0x60 SWAP2 POP JUMPDEST POP SWAP2 POP SWAP2 POP DUP2 PUSH2 0x21D JUMPI PUSH1 0x0 DUP1 REVERT JUMPDEST PUSH32 0xBA951166D42EB077151BDECB7CF6027562F04F0143B0C141B1BB0A33EEF5D693 CALLER CALLVALUE PUSH1 0x40 MLOAD PUSH2 0x24E SWAP3 SWAP2 SWAP1 PUSH2 0x360 JUMP JUMPDEST PUSH1 0x40 MLOAD DUP1 SWAP2 SUB SWAP1 LOG1 POP POP POP JUMP JUMPDEST PUSH1 0x0 DUP1 PUSH1 0x1 DUP2 GT ISZERO PUSH2 0x270 JUMPI PUSH2 0x26F PUSH2 0x488 JUMP JUMPDEST JUMPDEST PUSH1 0x0 DUP1 SLOAD SWAP1 PUSH2 0x100 EXP SWAP1 DIV PUSH1 0xFF AND PUSH1 0x1 DUP2 GT ISZERO PUSH2 0x290 JUMPI PUSH2 0x28F PUSH2 0x488 JUMP JUMPDEST JUMPDEST POP POP SWAP1 JUMP JUMPDEST PUSH1 0x0 DUP1 SLOAD SWAP1 PUSH2 0x100 EXP SWAP1 DIV PUSH1 0xFF AND DUP2 JUMP JUMPDEST PUSH2 0x2AF DUP2 PUSH2 0x41B JUMP JUMPDEST DUP3 MSTORE POP POP JUMP JUMPDEST PUSH2 0x2BE DUP2 PUSH2 0x42D JUMP JUMPDEST DUP3 MSTORE POP POP JUMP JUMPDEST PUSH2 0x2CD DUP2 PUSH2 0x476 JUMP JUMPDEST DUP3 MSTORE POP POP JUMP JUMPDEST PUSH1 0x0 PUSH2 0x2E0 PUSH1 0x19 DUP4 PUSH2 0x40A JUMP JUMPDEST SWAP2 POP PUSH2 0x2EB DUP3 PUSH2 0x4B7 JUMP JUMPDEST PUSH1 0x20 DUP3 ADD SWAP1 POP SWAP2 SWAP1 POP JUMP JUMPDEST PUSH1 0x0 PUSH2 0x303 PUSH1 0x15 DUP4 PUSH2 0x40A JUMP JUMPDEST SWAP2 POP PUSH2 0x30E DUP3 PUSH2 0x4E0 JUMP JUMPDEST PUSH1 0x20 DUP3 ADD SWAP1 POP SWAP2 SWAP1 POP JUMP JUMPDEST PUSH1 0x0 PUSH2 0x326 PUSH1 0x0 DUP4 PUSH2 0x3FF JUMP JUMPDEST SWAP2 POP PUSH2 0x331 DUP3 PUSH2 0x509 JUMP JUMPDEST PUSH1 0x0 DUP3 ADD SWAP1 POP SWAP2 SWAP1 POP JUMP JUMPDEST PUSH2 0x345 DUP2 PUSH2 0x46C JUMP JUMPDEST DUP3 MSTORE POP POP JUMP JUMPDEST PUSH1 0x0 PUSH2 0x356 DUP3 PUSH2 0x319 JUMP JUMPDEST SWAP2 POP DUP2 SWAP1 POP SWAP2 SWAP1 POP JUMP JUMPDEST PUSH1 0x0 PUSH1 0x40 DUP3 ADD SWAP1 POP PUSH2 0x375 PUSH1 0x0 DUP4 ADD DUP6 PUSH2 0x2A6 JUMP JUMPDEST PUSH2 0x382 PUSH1 0x20 DUP4 ADD DUP5 PUSH2 0x33C JUMP JUMPDEST SWAP4 SWAP3 POP POP POP JUMP JUMPDEST PUSH1 0x0 PUSH1 0x20 DUP3 ADD SWAP1 POP PUSH2 0x39E PUSH1 0x0 DUP4 ADD DUP5 PUSH2 0x2B5 JUMP JUMPDEST SWAP3 SWAP2 POP POP JUMP JUMPDEST PUSH1 0x0 PUSH1 0x20 DUP3 ADD SWAP1 POP PUSH2 0x3B9 PUSH1 0x0 DUP4 ADD DUP5 PUSH2 0x2C4 JUMP JUMPDEST SWAP3 SWAP2 POP POP JUMP JUMPDEST PUSH1 0x0 PUSH1 0x20 DUP3 ADD SWAP1 POP DUP2 DUP2 SUB PUSH1 0x0 DUP4 ADD MSTORE PUSH2 0x3D8 DUP2 PUSH2 0x2D3 JUMP JUMPDEST SWAP1 POP SWAP2 SWAP1 POP JUMP JUMPDEST PUSH1 0x0 PUSH1 0x20 DUP3 ADD SWAP1 POP DUP2 DUP2 SUB PUSH1 0x0 DUP4 ADD MSTORE PUSH2 0x3F8 DUP2 PUSH2 0x2F6 JUMP JUMPDEST SWAP1 POP SWAP2 SWAP1 POP JUMP JUMPDEST PUSH1 0x0 DUP2 SWAP1 POP SWAP3 SWAP2 POP POP JUMP JUMPDEST PUSH1 0x0 DUP3 DUP3 MSTORE PUSH1 0x20 DUP3 ADD SWAP1 POP SWAP3 SWAP2 POP POP JUMP JUMPDEST PUSH1 0x0 PUSH2 0x426 DUP3 PUSH2 0x44C JUMP JUMPDEST SWAP1 POP SWAP2 SWAP1 POP JUMP JUMPDEST PUSH1 0x0 DUP2 ISZERO ISZERO SWAP1 POP SWAP2 SWAP1 POP JUMP JUMPDEST PUSH1 0x0 DUP2 SWAP1 POP PUSH2 0x447 DUP3 PUSH2 0x50C JUMP JUMPDEST SWAP2 SWAP1 POP JUMP JUMPDEST PUSH1 0x0 PUSH20 0xFFFFFFFFFFFFFFFFFFFFFFFFFFFFFFFFFFFFFFFF DUP3 AND SWAP1 POP SWAP2 SWAP1 POP JUMP JUMPDEST PUSH1 0x0 DUP2 SWAP1 POP SWAP2 SWAP1 POP JUMP JUMPDEST PUSH1 0x0 PUSH2 0x481 DUP3 PUSH2 0x439 JUMP JUMPDEST SWAP1 POP SWAP2 SWAP1 POP JUMP JUMPDEST PUSH32 0x4E487B7100000000000000000000000000000000000000000000000000000000 PUSH1 0x0 MSTORE PUSH1 0x21 PUSH1 0x4 MSTORE PUSH1 0x24 PUSH1 0x0 REVERT JUMPDEST PUSH32 0x6E6F7420656E6F7567682065746865722070726F766964656400000000000000 PUSH1 0x0 DUP3 ADD MSTORE POP JUMP JUMPDEST PUSH32 0x2074686520726F6F6D206973206F636375706965640000000000000000000000 PUSH1 0x0 DUP3 ADD MSTORE POP JUMP JUMPDEST POP JUMP JUMPDEST PUSH1 0x2 DUP2 LT PUSH2 0x51D JUMPI PUSH2 0x51C PUSH2 0x488 JUMP JUMPDEST JUMPDEST POP JUMP INVALID LOG2 PUSH5 0x6970667358 0x22 SLT KECCAK256 SWAP15 DUP9 DUP4 CALLDATALOAD MULMOD 0x4B LOG1 0x25 0xDF DUP16 DUP1 0xD7 SWAP16 0xAA SWAP2 0xDB STOP 0x2C SWAP5 EXTCODESIZE 0xED 0xD0 DUP12 0xEF SWAP10 SWAP4 DUP10 RETURNDATASIZE PUSH1 0x5D LOG4 BALANCE PUSH5 0x736F6C6343 STOP ADDMOD SMOD STOP CALLER "
				},
				"gasEstimates": {
					"creation": {
						"codeDepositCost": "273200",
						"executionCost": "48927",
						"totalCost": "322127"
					},
					"external": {
						"book()": "infinite",
						"checkout()": "2530",
						"currentstatus()": "2579"
					}
				},
				"methodIdentifiers": {
					"book()": "05a8da72",
					"checkout()": "06099d69",
					"currentstatus()": "9e14e2b9"
				}
			},
			"storageLayout": {
				"storage": [
					{
						"astId": 7,
						"contract": "contracts/HotelRoom.sol:HotelRoom",
						"label": "currentstatus",
						"offset": 0,
						"slot": "0",
						"type": "t_enum(status)4"
					},
					{
						"astId": 15,
						"contract": "contracts/HotelRoom.sol:HotelRoom",
						"label": "owner",
						"offset": 1,
						"slot": "0",
						"type": "t_address_payable"
					}
				],
				"types": {
					"t_address_payable": {
						"encoding": "inplace",
						"label": "address payable",
						"numberOfBytes": "20"
					},
					"t_enum(status)4": {
						"encoding": "inplace",
						"label": "enum HotelRoom.status",
						"numberOfBytes": "1"
					}
				}
			},
			"userdoc": {
				"kind": "user",
				"methods": {},
				"version": 1
			}
		}
	}
}